:020000040800F2
:1000000058140020E1040008E9040008EB0400088B
:10001000ED040008EF040008F104000800000000EF
:10002000000000000000000000000000F3040008D1
:10003000F504000800000000F7040008F9040008B7
:10004000FB040008FB040008FB040008FB04000894
:10005000FB040008FB040008FB040008FB04000884
:10006000FB040008FB040008FB040008FB04000874
:10007000FB040008FB040008FB040008FB04000864
:10008000FB040008FB040008A7470008C132000871
:10009000DD320008FB040008FB040008FB04000834
:1000A000FB040008FB040008FB040008FB04000834
:1000B00043310008FB040008FB040008FB040008AF
:1000C000FB040008FB040008FB040008FB04000814
:1000D000FB040008FF2F0008FB040008FB040008D5
:1000E000FB040008FB040008FB040008FB040008F4
:1000F000FB040008FB040008FB040008FB040008E4
:10010000FB040008FB040008FB040008FB040008D3
:1001100059370008FB040008FB040008FB04000832
:10012000FB040008FB040008FB040008FB040008B3
:10013000FB040008FB040008FB0400081736000855
:100140002D360008FB040008FB040008FB0400082F
:10015000FB040008FB040008FB040008FB04000883
:10016000FB040008FB040008FB040008FB04000873
:10017000FB040008FB040008FB040008FB04000863
:10018000FB040008FB04000800F002F800F069F826
:100190000AA090E8000C82448344AAF10107DA45E2
:1001A00001D100F05EF8AFF2090EBAE80F0013F0CB
:1001B000010F18BFFB1A43F001031847C89D000048
:1001C000E89D00000A444FF0000C10F8013B13F0CA
:1001D000070408BF10F8014B1D1108BF10F8015BA0
:1001E000641E05D010F8016B641E01F8016BF9D193
:1001F00013F0080F1EBF10F8014BAD1C0C1B09D1EA
:100200006D1E58BF01F801CBFAD505E014F8016B5B
:1002100001F8016B6D1EF9D59142D6D370470000ED
:100220000023002400250026103A28BF78C1FBD8FF
:10023000520728BF30C148BF0B607047662909F0DC
:100240009C85002070471FB509F08DFD07F048FB25
:1002500004000020002108F0A7FFE0601FBD10B5DA
:1002600010BD07F055FC1146FFF7EDFF00F008F850
:1002700007F073FC03B4FFF7F2FF03BC02F060FE6B
:1002800010B51148114908604FF4A06000F048F91A
:10029000A82002F0D3FD4FF4E13002F05EFE02F040
:1002A000F3FE04F071FB02F087FF04F0FFFD04F0A1
:1002B00017FA06F0F0FE02F00DFF02F03CFF05F029
:1002C00050F8002010BD000084000020A002002093
:1002D0000CB50020019000907648006840F4803012
:1002E0007449086000BF7348006800F40030009053
:1002F0000198401C0190009818B90198B0F5A04FE2
:10030000F1D16C48006800F4003010B10120009079
:1003100001E0002000900098012846D16548403057
:10032000006840F0805063494031086062480068CE
:1003300040F44040604908605E48083000685D490C
:10034000083108600846006840F40040086008462C
:10035000006840F4A05008605848091F0860081F52
:10036000006840F08070091F086000BF51480068B5
:1003700000F000700028F9D040F205705049086084
:100380004C480830006820F003004A4908310860F2
:100390000846006840F00200086000BF4548083089
:1003A000006800F00C000828F8D10CBD10B54548D5
:1003B000006840F47000434908603E48006840F01F
:1003C00001003C49086000203A490831086039487A
:1003D00000683D490840374908603C48091D0860ED
:1003E000081F006820F48020091F086000203149A0
:1003F0000C310860FFF76CFF4FF000603149803925
:10040000086010BD70B500200022022300240221E4
:10041000284D08352D6805F00C0020B1042806D0C1
:10042000082834D107E02A4D2A4E356033E02A4DA2
:10043000284E35602FE01F4D2D1D2D68C5F38054CB
:100440001C4D2D1D2D6805F03F0154B1224DB5FB0B
:10045000F1F5184E361D3668C6F3881605FB06F210
:1004600009E01B4DB5FBF1F5124E361D3668C6F39B
:10047000881605FB06F20F4D2D1D2D68C5F30145AD
:100480006D1C6B00B2FBF3F5124E356003E0104DAE
:10049000104E356000BF00BF064D08352D68C5F30E
:1004A00003150E4E705D0B4D2D68C540094E35602D
:1004B00070BD000000380240007000400854400742
:1004C000003C024088ED00E0FFFFF6FE1030002403
:1004D0000024F4000000002000127A000400002034
:1004E0000948804709480047FEE7FEE7FEE7FEE7C8
:1004F000FEE7FEE7FEE7FEE7FEE7FEE70448054904
:10050000054A064B70470000AD030008890100084A
:10051000580C0020581400205810002058100020BB
:1005200032490143324A1160704770B500210023FF
:100530000F22C4781CB32E4C246804F4E064C4F584
:10054000E064C4F30721C1F10404E3B20A41447832
:100550009C40E1B28478144021430C07210E254CC5
:1005600005786155047804F01F050124AC40057836
:100570006D11AD0005F1E025C5F8004109E00478F2
:1005800004F01F050124AC401B4D0678761145F898
:10059000264070BD194A0A400243154B1B1F1A60C2
:1005A000704739B1124A121D12680243104B1B1DCD
:1005B0001A6006E00E4A121D126882430C4B1B1D86
:1005C0001A607047042808D14FF0E021096941F012
:1005D00004014FF0E022116107E04FF0E0210969CA
:1005E00021F004014FF0E022116170470000FA058C
:1005F0000CED00E000E400E080E100E080FFFF1F80
:1006000010B50121080201F0F8FA00214FF48070C2
:1006100001F0F3FA10BD30B5024600200023506807
:10062000F84C20400D790C6844EA052420435060C2
:100630009068F54C2040D1E903542C438D682C433D
:100640004D7944EA450420439060D06A20F470005C
:100650000C7D641EE4B2234340EA0350D06230BDF7
:1006600000210160017141718160C160016101215E
:10067000017570470021E54A1168E54A1140D0E94B
:1006800000231A4383681A43C3681A431143E14A9B
:10069000C2F8041370470021016041608160C160AD
:1006A000704721B1826842F00102826003E08268F3
:1006B00022F00102826070470A4600214168D64B51
:1006C00019401143416070474162826270470A4697
:1006D0000021416821F01F0111434160704738B18A
:1006E000CA49096841F40001CA4AC2F8041306E085
:1006F000C649096821F40001C64AC2F804137047CC
:1007000038B1C249096841F48001C24AC2F80413F1
:1007100006E0BE49096821F48001BE4AC2F804130C
:100720007047F0B504460D4600200021092D11DD6B
:10073000E068A5F10A0606EB4607072606FA07F168
:100740008843A5F10A0606EB460603FA06F10843BC
:10075000E0600CE0206905EB4507072606FA07F183
:10076000884305EB450603FA06F108432061072A92
:100770000FDA606B561E06EB86071F2606FA07F196
:100780008843561E06EB860605FA06F108436063A9
:1007900022E00D2A0FDA206BD61F06EB86071F26F4
:1007A00006FA07F18843D61F06EB860605FA06F11E
:1007B0000843206310E0E06AA2F10D0606EB86070D
:1007C0001F2606FA07F18843A2F10D0606EB8606FE
:1007D00005FA06F10843E062F0BD816841F080410E
:1007E00081607047014600208A6802F080420AB1A9
:1007F000012000E00020704721B1826842F480624D
:10080000826003E0826822F480628260704721B1D6
:10081000826842F00202826003E0826822F00202F3
:100820008260704710B50A4600210023416821F418
:100830006041531E41EA4331416010BD21B142681D
:1008400042F40062426003E0426822F400624260C7
:1008500070470146C86C80B270476C48001D006844
:10086000704721B1826842F48072826003E082683E
:1008700022F480728260704721B1826842F4007273
:10088000826003E0826822F400728260704738B1AF
:100890005E49096841F400515E4AC2F8041306E05B
:1008A0005A49096821F400515A4AC2F804137047A2
:1008B000F0B504461546002000220026092911DD66
:1008C000E068A1F10A0707EB470C072707FA0CF2CB
:1008D0009043A1F10A0707EB470703FA07F2104319
:1008E000E0600CE0206901EB410C072707FA0CF2ED
:1008F000904301EB410703FA07F210432061A06B1C
:10090000C0F30156EF1C06F1010CA7EB0C0707EB37
:10091000870C1F2707FA0CF29043EF1C06F1010C1D
:10092000A7EB0C0707EB870701FA07F21043A06358
:10093000F0BD10B50A4600210023816B21F440115F
:10094000531E41EA0351816310BD08B50023009393
:100950000090009B0B440093009B1A6008BD0A4660
:100960000021816821F470211143816070470A469B
:100970000021816821F44011114381607047816832
:1009800041F4800181607047014600208A6802F4CA
:1009900080020AB1012000E00020704721B14268C6
:1009A00042F48062426003E0426822F48062426066
:1009B000704721B1426842F48052426003E04268CD
:1009C00022F480524260704708B502460020009031
:1009D000009201F12800009B1844009000980068E4
:1009E00080B208BD10B50B460021D9B2012404FA2B
:1009F00001F11AB144680C43446002E044688C433E
:100A0000446010BDFFFEFFFCFDF7FFC00423014062
:100A1000E030FCFF00200140FFFD3FFF02460020C8
:100A200013680B400BB1012000E000207047CA435F
:100A30000260704770B502460020002300240B12AC
:100A4000556801268E4005EA060415681D4015B15B
:100A50000CB1012000E0002070BD00220A12D34337
:100A60000360704710B50446FE48844209D1012155
:100A7000480601F0B1F800214FF0007001F0ACF829
:100A800008E00121880601F0A7F800214FF08060FE
:100A900001F0A2F810BD30B5024600200023146812
:100AA00024F002041460146844F00104146000E0AF
:100AB0005B1C546804F001041CB94FF6FF74A34298
:100AC000F6D1546804F001040CB900206CE08C7974
:100AD000012C04D1146844F08004146003E014680D
:100AE00024F080041460CC79012C04D1146844F003
:100AF0004004146003E0146824F0400414600C7A8D
:100B0000012C04D1146844F02004146003E014683C
:100B100024F0200414604C7A012C04D1146844F0B1
:100B20001004146003E0146824F0100414608C7A3C
:100B3000012C04D1146844F00804146003E0146824
:100B400024F008041460CC7A012C04D1146844F019
:100B50000404146003E0146824F0040414608C7826
:100B6000A407CD7844EA05640D7944EA05444D793B
:100B700044EA05540D886D1E2C43D461146824F09A
:100B800001041460002300E05B1C546804F00104BD
:100B90001CB14FF6FF74A342F6D1546804F001046F
:100BA0000CB1002000E0012030BD10B50021837A97
:100BB000012202FA03F1AC4A126842F00102AA4B88
:100BC0001A60A94A1C3212688A43A74B1C331A6068
:100BD000027BCAB9A44A0C3212688A43A24B0C3376
:100BE0001A604288C38842EA03439F4A4032847AAB
:100BF00042F834300288838842EA03439A4A4032FA
:100C0000847A02EBC4025360027B012A19D1964A0E
:100C10000C3212680A43944B0C331A6042880388E2
:100C200042EA0343904A4032847A42F83430C28820
:100C3000838842EA03438C4A4032847A02EBC4023E
:100C40005360C27A3AB9884A121D12688A43864BA9
:100C50001B1D1A6006E0844A121D12680A43824B6B
:100C60001B1D1A60028932B97F4A143212688A4306
:100C70007D4B14331A600289012A06D17A4A143254
:100C800012680A43784B14331A60427B012A06D15A
:100C9000754A1C3212680A43734B1C331A60724A3D
:100CA000126822F00102704B1A6010BD00218171A0
:100CB000C171017241728172C1728170C170032170
:100CC0000171022141710121018070476649096863
:100CD00041F00101644A11601146096843F60E7241
:100CE0009143614A11601146096841EA002111608F
:100CF0001146096821F001011160704721B10268B5
:100D000042F48032026003E0026822F48032026022
:100D10007047E1B1026842F0800202604FF4C27293
:100D2000125842F480734FF4C27213504FF4CA72D7
:100D3000125842F480734FF4CA7213504FF4D272B7
:100D4000125842F480734FF4D27213501BE00268C1
:100D500022F0800202604FF4C272125822F48073B3
:100D60004FF4C27213504FF4CA72125822F48073B7
:100D70004FF4CA7213504FF4D272125822F4807397
:100D80004FF4D2721350704710B50246002093689A
:100D900003F08063B3F1806F00D110E0936803F03B
:100DA0000063B3F1006F01D1012008E0936803F004
:100DB0008053B3F1805F01D1022000E004200428B9
:100DC00079D002F5C07303EB00131B6803F0010434
:100DD00002F5C07303EB00131C600B7A7BB94B7AEE
:100DE0000C8843EA445302F5C07404EB00142468F1
:100DF000234302F5C07404EB0014236010E00B7A67
:100E00004C6843EAC4034C7A234302F5C07404EBF4
:100E100000142468234302F5C07404EB001423601B
:100E20008B7A03F00F038B7202F5C07303EB001390
:100E30005B6823F00F0402F5C07303EB00135C60E2
:100E400002F5C07303EB00135B688C7A234302F551
:100E5000C07404EB001463608B7B1C064B7B44EA7C
:100E6000034403E000640040006600400B7B44EA5A
:100E70000323CC7A234302F5C07404EB0014A3606F
:100E80008B7C1C064B7C44EA03440B7C44EA032322
:100E9000CC7B234302F5C07404EB0014E36002F53D
:100EA000C07303EB00131B6843F0010402F5C07329
:100EB00003EB00131C6010BD10B50246002321B1E6
:100EC000012907D002290FD109E09068F94C00EA06
:100ED00004030BE09068F84C00EA040306E0906815
:100EE000F64C00EA040301E0002300BF00BFF44C0D
:100EF000181BA34216D007DC83B16FF08060184442
:100F000070B1022818D111E0B0F5007F10D0ED4C7F
:100F1000204448B1B0F5003F0ED10BE002230DE0B4
:100F200000230BE0002309E0002307E0012305E094
:100F3000012303E0012301E0002300BF00BFD8B27A
:100F400010BD21B1012907D002290FD109E0826823
:100F500042F0800282600AE0826842F400428260CD
:100F600005E0826842F40002826000E000BF00BF3A
:100F7000704710B500F5D87303EB01131B6803F03D
:100F800004031372137A53B900F5D87303EB0113FA
:100F90001B6840F2FF7404EA5353136009E000F544
:100FA000D87303EB01131B686FF0604404EAD303AA
:100FB000536000F5D87303EB01131B6803F00203C1
:100FC000537200F5D87303EB01135B6803F00F0352
:100FD000937200F5D87303EB01135B681B0AD3749B
:100FE00000F5D87303EB01139B68D37200F5D87337
:100FF00003EB01139B681C0A147300F5D87303EB11
:1010000001139B681C0C547300F5D87303EB011398
:101010009B681B0E937300F5D87303EB0113DB6819
:10102000D37300F5D87303EB0113DB681C0A147447
:1010300000F5D87303EB0113DB681C0C547400F546
:10104000D87303EB0113DB681B0E937421B9C368DB
:1010500043F02003C36003E0036943F0200303610E
:1010600010BD21B9C26842F02002C26003E00269EB
:1010700042F02002026170470246002019B9D3688D
:1010800003F0030006E0012903D1136903F0030014
:1010900000E00020704710B502460B4600204FF6D6
:1010A000FF71BBB9146824F0020444F00104146019
:1010B00000E0491E546804F00304012C01D000290B
:1010C000F7D1546804F00304012C01D0002032E071
:1010D000012030E0012B13D1146824F003041460C4
:1010E00000E0491E546804F003040CB10029F8D153
:1010F000546804F003040CB100201CE001201AE045
:10110000022B17D1146824F0010444F00204146087
:1011100000E0491E546804F00304022C01D00029A9
:10112000F7D1546804F00304022C01D0002002E03F
:10113000012000E0002010BD014600200A6822F0D6
:10114000010242F002020A604A6802F00302022A27
:1011500000D10120704701464FF6FF7200200B6856
:1011600023F002030B6000E0521E4B6803F0020301
:10117000022B01D1002AF7D14B6803F00203022BA6
:1011800000D001207047014600208A6902F07000FB
:101190007047014600208A69100E70470146002002
:1011A0008A69C2F3074070471AB143690B43436130
:1011B00002E043698B434361704710B5024600204B
:1011C00001F4700343B19369C1F3130423400BB1DD
:1011D00001202DE000202BE001F0807343B1536823
:1011E000C1F3130423400BB1012021E000201FE0D4
:1011F00001F0006343B19368C1F3130423400BB1C2
:10120000012015E0002013E001F0007343B1D36822
:10121000C1F3130423400BB1012009E0002007E0D3
:101220001369C1F3130423400BB1012000E0002037
:1012300010BD0022244B994202D10023836111E0AA
:10124000C1F3130201F000730BB1C2600AE001F0B8
:1012500080630BB1026105E001F000630BB18260B5
:1012600000E0426070470246002002EA01030BB131
:10127000012000E00020704770B504460D460026AE
:1012800060692840002872D0B5F5807F69D01DDCE8
:10129000082D42D006DC012D2DD0022D31D0042D99
:1012A0007FD134E0102D3ED0202D42D0402D78D17A
:1012B00045E00000030000040003000800000310E4
:1012C000000100080001FFF77000F030B5F5004F95
:1012D00061D009DCB5F5007F4AD0B5F5806F4DD0FF
:1012E000B5F5006F5DD150E0B5F5803F2DD0B5F577
:1012F000003F56D12FE0A0685549FFF7B4FF0646DE
:1013000051E0E0680321FFF7AEFF06464BE0E068DE
:101310000821FFF7A8FF064645E0E0681021FFF727
:10132000A2FF06463FE020690321FFF79CFF064627
:1013300039E020690821FFF796FF064633E020696F
:101340001021FFF790FF06462DE060680821FFF7A7
:101350008AFF064627E060681021FFF784FF0646F3
:1013600021E0A0690121FFF77EFF06461BE01BE09C
:10137000A0690221FFF777FF064614E0A069042167
:10138000FFF771FF06460EE00BE0A0697021FFF742
:101390006AFF064607E060680421FFF764FF06461F
:1013A00001E0002600BF00E00026304670BDB1F528
:1013B000007F3AD00FDC202928D006DC01291CD080
:1013C00004291DD0082940D11DE0402921D0B1F5C4
:1013D000807F3AD126E0B1F5004F31D006DCB1F57F
:1013E000806F25D0B1F5006F2FD124E0B1F5803F9B
:1013F00012D0B1F5003F28D111E0154A826025E0F6
:101400000822C26022E01022C2601FE008220261AE
:101410001CE01022026119E00822426016E010224E
:10142000426013E00422426010E0042242600DE0BA
:10143000042242600AE0002282610422426005E048
:10144000002282610422426000E000BF00BF7047BA
:101450000101010010B504469848844208D10121D9
:10146000084600F086FB0021012000F082FB76E0B8
:101470009348844208D10121022000F07AFB002128
:10148000022000F076FB6AE08E48844208D10121F8
:10149000042000F06EFB0021042000F06AFB5EE0F7
:1014A0008948844208D10121082000F062FB002114
:1014B000082000F05EFB52E08448844208D10121FC
:1014C000102000F056FB0021102000F052FB46E0F7
:1014D0007F48844208D10121202000F04AFB0021EE
:1014E000202000F046FB3AE07A48844208D10121EE
:1014F000402000F03EFB0021402000F03AFB2EE0AF
:101500007548844208D10121802000F032FB00217F
:10151000802000F02EFB22E07048844208D1012197
:10152000801500F026FB0021A01500F022FB16E03C
:101530006B48844208D10121401500F01AFB0021BC
:10154000601500F016FB0AE06648844207D10121CD
:10155000001500F00EFB0021201500F00AFB10BD65
:10156000F0B50A4600210023002400BF3DE001251C
:1015700005FA01F3156805EA03049C4234D10568B5
:101580004F000326BE40B543056015794E00B540B7
:101590000668354305601579012D02D01579022DB5
:1015A00016D185684F000326BE40B5438560557946
:1015B0004E00B540866835438560456801268E40FB
:1015C000B5434560456896798E40B6B2354345606F
:1015D000C5684F000326BE40B543C560D5794E00AF
:1015E000B540C6683543C560491C1029BFD3F0BD5E
:1015F0004FF6FF7101600021017141718171C1716C
:10160000704708B54FF480320092009A0A43009266
:10161000009AC261C161009AC261C2690092C26946
:10162000009208BD0246002013690B400BB1012057
:1016300000E0002070470146086980B2704702460A
:10164000002053690B400BB1012000E000207047DF
:101650000146486980B270470183704741837047F3
:101660000AB1018300E041837047416170474269DC
:101670004A4042617047F0B5002300244D07ED0E4B
:1016800002FA05F3CE1000F1200555F826504E075A
:10169000F70E0F26BE40B543CF1000F1200646F8E6
:1016A0002750CE1000F1200555F8265045EA0304D6
:1016B000CE1000F1200545F82640F0BD00000240A4
:1016C0000004024000080240000C024000100240EA
:1016D0000014024000180240001C0240002002409A
:1016E0000024024000280240F948006840F0010050
:1016F000F74908600020F64908310860F44800689E
:10170000F4490840F2490860F348091D0860F348AD
:10171000EF4984310860F0481038091D0860EC4832
:10172000006820F48020EA4908600020E8490C3174
:101730000860E7498C31086070470021E44A921C38
:10174000117011460870704710B501460022002341
:1017500000204A11012A02D1DD4C236808E0022A48
:1017600003D1DB4C7034236802E0D94C7434236815
:1017700001F01F02012494401C400CB1012000E044
:10178000002010BD38B5002000900024002500BFC7
:101790003120FFF7D9FF05460098401C00900098C3
:1017A000B0F5A04F01D0002DF2D03120FFF7CCFFD3
:1017B00008B1012400E00024204638BD0146002085
:1017C000C34A106820F0F80040EAC100106070477A
:1017D000C349086070470021BD4A70321170117012
:1017E000012802D004280AD104E00121B84A70324D
:1017F000117005E00521B64A7032117000E000BF9B
:1018000000BF7047B7490860704770B5049C41EA53
:1018100082150126C6EB530645EA0645054345EA0F
:101820000465AB4E361D356070BDAD490866704726
:10183000820142EA0172A64B84331A607047A849BC
:101840008866704710B5830143EA016343EA027377
:101850009F4C8834236010BDA14908677047A04998
:10186000C864704702460020994B0833186820F07E
:10187000EC6042EA01031843954B08331860704747
:1018800002460020924B0833186820F0784042EA64
:10189000010318438E4B083318607047014600203F
:1018A0008B4A0832106820F003000843106070472C
:1018B00087480830006800F00C007047014600209F
:1018C000834A0832106820F0F00008431060704727
:1018D000014600207E4A0832106820F4E050084398
:1018E0001060704701460020794A0832106820F4E1
:1018F000604040EAC10010607047F0B5002100224E
:101900000024022500260223714F08373F6807F0A4
:101910000C0121B1042905D0082937D105E0724F07
:10192000076036E0714F076033E0694F3F1D3F6845
:10193000C7F38056664F3F1D3F6807F03F036EB107
:101940006A4FB7FBF3F7DFF888C10CF1040CDCF841
:1019500000C0CCF3881C07FB0CF40CE0624FB7FB13
:10196000F3F7DFF86CC10CF1040CDCF800C0CCF329
:10197000881C07FB0CF4564F3F1D3F68C7F3014717
:101980007F1C7D00B4FBF5F7076002E0564F07604F
:1019900000BF00BF4E4F08373F6807F0F00109094C
:1019A000534F7A5C0768D7404760494F08373F6814
:1019B00007F4E051890A4E4F7A5C4768D740876048
:1019C000434F08373F6807F46041490B484F7A5C42
:1019D0004768D740C760F0BD002100F44072B2F5FF
:1019E000407F0AD13A4A0832116821F4F811414A7D
:1019F00002401143364A08321160354A703212688B
:101A0000C0F30B031A43324B70331A6070473549E9
:101A10004439086070473349403908607047364997
:101A20000860704701460020294A8C32106820F077
:101A30001F004A1E1043264A8C3210607047014630
:101A40000020234A8C32106820F4F8504A1E40EAE5
:101A500002201F4A8C3210607047014600201C4A49
:101A60008C32106820F44010084310607047014623
:101A70000020174A8C32106820F4400008431060A0
:101A8000704701460020124A8C32106820F4403022
:101A900008431060704719490860704739B10C4A13
:101AA0003032126802430A4B30331A6006E0084AAB
:101AB000303212688243064B30331A607047F9B1F6
:101AC000034A343212680243014B34331A601CE07B
:101AD00000380240FFFFF6EA1030002400300020FA
:101AE00000004742800E47420024F40000127A00B2
:101AF00014000020FFFCFF0F5C014742E011474249
:101B00008F4A126882438E4B1A60704739B18C4AF3
:101B1000121D126802438A4B1B1D1A6006E0884A98
:101B2000121D12688243864B1B1D1A60704739B123
:101B3000834A0C3212680243814B0C331A6006E070
:101B40007F4A0C32126882437D4B0C331A60704717
:101B500039B17B4A103212680243794B10331A6054
:101B600006E0774A103212688243754B10331A60D0
:101B7000704739B1724A243A12680243704B243BD1
:101B80001A6006E06E4A243A126882436C4B243B8A
:101B90001A60704739B16A4A203A12680243684BAA
:101BA000203B1A6006E0664A203A12688243644B82
:101BB000203B1A60704739B1614A1C3A12680243EF
:101BC0005F4B1C3B1A6006E05D4A1C3A1268824378
:101BD0005B4B1C3B1A60704739B1594A143A126882
:101BE0000243574B143B1A6006E0554A143A1268F8
:101BF0008243534B143B1A60704739B1504A103A34
:101C0000126802434E4B103B1A6006E04C4A103AF1
:101C1000126882434A4B103B1A60704739B1484AF8
:101C20001C3212680243464B1C331A6006E0444AD9
:101C30001C3212688243424B1C331A60704739B120
:101C40003F4A2032126802433D4B20331A6006E0BF
:101C50003B4A203212688243394B20331A60704766
:101C600039B1374A243212680243354B24331A60A3
:101C700006E0334A243212688243314B24331A601F
:101C8000704739B12E4A2C32126802432C4B2C3348
:101C90001A6006E02A4A2C3212688243284B2C3301
:101CA0001A60704739B1264A303212680243244B19
:101CB00030331A6006E0224A303212688243204BE9
:101CC00030331A607047012808D11D493C3109683A
:101CD00041F008011A4A3C32116007E018493C31D2
:101CE000096821F00801164A3C321160704739B189
:101CF000134A273A12780243114B273B1A7006E029
:101D00000F4A273A127882430D4B273B1A707047CF
:101D10000B484030006840F080700949403108604D
:101D2000704701460020064A283A12680A400AB164
:101D3000012000E0002070470149263908707047F3
:101D40003438024010B50446FE48844208D10121CF
:101D50000846FFF752FF00210120FFF74EFF9DE0EC
:101D6000B4F1804F08D101210846FFF735FF00216B
:101D70000120FFF731FF91E0F348844208D10121AF
:101D80000220FFF729FF00210220FFF725FF85E051
:101D9000EE48844208D101210420FFF71DFF0021F5
:101DA0000420FFF719FF79E0E948844208D10121B6
:101DB0000820FFF711FF00210820FFF70DFF6DE05D
:101DC000E448844208D101211020FFF705FF0021DB
:101DD0001020FFF701FF61E0DF48844208D10121B4
:101DE0002020FFF7F9FE00212020FFF7F5FE55E047
:101DF000DA48844208D101210220FFF7FEFE0021CB
:101E00000220FFF7FAFE49E0D548844209D10121BA
:101E10000804FFF7F2FE00214FF48030FFF7EDFEDB
:101E20003CE0D048844209D101214804FFF7E5FE97
:101E300000214FF40030FFF7E0FE2FE0CA48844253
:101E400009D101218804FFF7D8FE00214FF480203A
:101E5000FFF7D3FE22E0C548844208D1012140208B
:101E6000FFF7BAFE00214020FFF7B6FE16E0C0489B
:101E7000844208D101218020FFF7AEFE002180209E
:101E8000FFF7AAFE0AE0BB48844207D10121801572
:101E9000FFF7A2FE0021A015FFF79EFE10BD002255
:101EA0000288A84B98420ED0AC4B98420BD0B0F1B0
:101EB000804F08D0A44B984205D0A44B984202D042
:101EC000A34B984204D14FF68F731A404B881A43A4
:101ED000A04B984207D0A04B984204D04FF6FF4346
:101EE0001A400B891A4302804B68C3620B88038532
:101EF000944B984202D0994B984201D18B7A038639
:101F00000123838270474FF0FF314160002101803F
:101F100001814180817270470185828270470A4643
:101F2000002101884FF68F731940114301807047DB
:101F300041627047C16270470146486A7047014676
:101F4000088D704721B1028842F00202028004E04D
:101F500002884FF6FD731A400280704721B1028853
:101F600042F00402028004E002884FF6FB731A403C
:101F70000280704721B1028842F08002028004E0B2
:101F800002884FF67F731A400280704702884FF62E
:101F9000F7731A40028002880A4302807047028861
:101FA0004FF6FF431A40028002880A4302807047BE
:101FB00021B1028842F00102028004E002884FF65B
:101FC000FE731A400280704770B50024002200237F
:101FD000058C4FF6FE7635400584028C8388048B91
:101FE0004FF68F752C40B51E2C400D882C43751E66
:101FF0002A408D892A434D882A43524DA84202D057
:10200000564DA84213D14FF6F7752A40CD892A4381
:102010004FF6FB752A408D882A434FF6FF652B400B
:102020004FF6FF552B400D8A2B434D8A2B4383805F
:1020300004838D684563028470BD70B5002400225E
:102040000023058C4FF6EF7635400584028C83889B
:10205000048B48F6FF752C404FF6FF452C400D8849
:102060004FF6FF7606EA05252C434FF6DF752A402A
:102070008D8906EA05152A434D8806EA05152A4387
:10208000304DA84202D0354DA8421DD14FF67F7584
:102090002A40CD894FF6FF7606EA05152A434FF60A
:1020A000BF752A408D8806EA05152A434FF6FF358D
:1020B0002B404FF2FF752B400D8A06EA85052B4316
:1020C0004D8A06EA85052B43838004838D688563EA
:1020D000028470BD70B5002400220023058C4FF6E9
:1020E000FF6635400584028C8388848B4FF68F759C
:1020F0002C404FF6FC752C400D882C434FF6FF55B5
:102100002A408D894FF6FF7606EA05252A434D8839
:1021100006EA05252A430B4DA84202D00F4DA842DE
:1021200038D14FF2FF752A40CD894FF6FF7606EA87
:1021300005252A434FF6FF352A408D8806EA0525F6
:102140002A4319E00000014000040040000800405C
:10215000000C00400010004000140040000401404A
:102160000040014000440140004801400018004088
:10217000001C0040002000404EF6FF752B404DF63D
:10218000FF752B400D8A06EA05152B434D8A06EA9A
:1021900005152B43838084838D68C563028470BDDD
:1021A00070B5002200230024058C4EF6FF763540E2
:1021B0000584038C8488828B48F6FF752A404FF68D
:1021C000FF452A400D884FF6FF7606EA05252A438B
:1021D0004DF6FF752B408D8906EA05352B434D885A
:1021E00006EA05352B43FE4DA84202D0FD4DA8421C
:1021F00008D14BF6FF752C400D8A4FF6FF7606EAA4
:1022000085152C43848082838D680564038470BDAA
:10221000002101804180818081608181C1810182B2
:102220004182704770B503460020002418461830DC
:1022300001258D40ACB21D8CA5431D8409B1082930
:102240000AD100EB610005684FF68F7635400560D6
:102250000568154305600FE00D1FC5F34E052844C2
:10226000056848F6FF763540056005684FF6FF764D
:1022700006EA02263543056070BD416370478163FD
:102280007047C1637047016470470A460021018BA3
:102290004FF68F7319401143018370470A4600219E
:1022A000018B48F6FF7319404FF6FF7303EA0223D0
:1022B0001943018370470A460021818B4FF68F73C3
:1022C00019401143818370470A460021818B48F6EB
:1022D000FF7319404FF6FF7303EA0223194381830A
:1022E00070470A460021018B4FF6F77319401143DE
:1022F000018370470A460021018B4FF2FF7319409A
:102300004FF6FF7303EA02231943018370470A461D
:102310000021818B4FF6F773194011438183704779
:102320000A460021818B4FF2FF7319404FF6FF736D
:1023300003EA02231943818370470A460021018B77
:102340004FF6FB7319401143018370470A46002181
:10235000018B4FF6FF3319404FF6FF7303EA022358
:102360001943018370470A460021818B4FF6FB73A6
:1023700019401143818370470A460021818B4FF633
:10238000FF3319404FF6FF7303EA02231943818399
:1023900070470A460021018B4FF67F7319401143A5
:1023A000018370470A460021018BC1F30E014FF6ED
:1023B000FF7303EA02231943018370470A46002191
:1023C000818B4FF67F7319401143818370470A4612
:1023D0000021818BC1F30E014FF6FF7303EA022344
:1023E0001943818370470A460021018C4FF6FD7323
:1023F00019401143018470470A460021018C4FF6B1
:10240000F77319401143018470470A460021018C7B
:102410004FF6DF7319404FF6FF7303EA02131943B7
:10242000018470470A460021018C4FF67F731940E2
:102430004FF6FF7303EA02131943018470470A46FB
:102440000021018C4FF6FF5319404FF6FF7303EA4A
:1024500002231943018470470A460021018C4FF280
:10246000FF7319404FF6FF7303EA022319430184F7
:1024700070470A460021018C4DF6FF7319404FF654
:10248000FF7303EA023319430184704730B5002318
:1024900001248C40A3B2048C9C430484048C02FA73
:1024A00001F5ADB22C43048430BD30B500230424C3
:1024B0008C40A3B2048C9C430484048C02FA01F582
:1024C000ADB22C43048430BD828B4FF2FF331A40EF
:1024D0008283828B4FF6FF7303EA01231A438283C0
:1024E0007047F0B50C461546002100220026078CE7
:1024F0004EF6FF7C07EA0C070784818B028C4FF6AF
:10250000FF7707EA043640F6FF4739404FF6FF777A
:1025100007EA052739434FF6FF7707EA03373943C0
:1025200045F6FF773A4046F480573A438183028468
:10253000F0BD828B4FF6F3731A408283828B0A437D
:1025400082837047F0B50C46154600210022002614
:10255000078C4FF6FF6C07EA0C070784818B028C0F
:102560004FF6FF7707EA04264FF60C7739404FF60F
:10257000FF7707EA03172F4339434FF2FF573A40DB
:1025800046F480773A4381830284F0BD028B4FF298
:10259000FF331A400283028B4FF6FF7303EA0123D5
:1025A0001A4302837047F0B50C46154600210022FD
:1025B0000026078C4FF6EF7C07EA0C070784018B97
:1025C000028C4FF6FF7707EA041640F6FF473940C2
:1025D0004FF6FF7707EA033739434FF6FF7703E0FB
:1025E000000001400004014007EA052739434FF687
:1025F0005F773A4046F010073A4301830284F0BD0A
:10260000028B4FF6F3731A400283028B0A43028354
:102610007047F0B50C46154600210022068C4FF697
:10262000FE773E400684018B028C4FF60C763140DB
:102630007E1C06EA03162E4331434FF6F5763240F0
:1026400044F00106324301830284F0BD70B50546B3
:102650000C46208850B92389A28861882846FFF754
:10266000D8FFE1882846FFF7CBFF25E02088042823
:102670000AD12389A28861882846FFF794FFE18860
:102680002846FFF783FF17E0208808280AD123890E
:10269000A28861882846FFF755FFE1882846FFF7A2
:1026A00048FF09E02389A28861882846FFF719FFBF
:1026B000E1882846FFF708FF70BD002101804180B6
:1026C000012181800021C180018170472DE9F04105
:1026D00005460C4600260127608808B9022600E05E
:1026E0000026A088012801D1022700E001272088C8
:1026F000A0B92389A28861882846FFF78AFFE1886C
:102700002846FFF77DFF23893A4631462846FFF7E2
:102710004AFFE1882846FFF739FF13E02389A288A2
:1027200061882846FFF73FFFE1882846FFF72EFF24
:1027300023893A4631462846FFF76BFFE188284651
:10274000FFF75EFFBDE8F0810146486B7047014628
:10275000886B70470146C86B70470146086C70472C
:102760000A884B881A438B881A43CB881A430B89F3
:102770001A434B891A438B891A43A0F844207047A7
:102780000021018041808180C1800181418181815E
:10279000704731B1B0F8442042F40042A0F8442020
:1027A00005E0B0F84420C2F30E02A0F844207047C0
:1027B00021B1828842F00402828004E082884FF6D0
:1027C000FB731A408280704721B1828842F0010277
:1027D000828004E082884FF6FE731A408280704740
:1027E0001AB183890B43838102E083898B43838100
:1027F00070478182704702460020138A0B400BB15C
:10280000012000E000207047CA430282704730B5C3
:102810000246002000230024158A05EA0103958959
:1028200005EA010413B10CB1012000E0002030BD25
:10283000CA430282704741EA0203A0F84830704759
:102840001AB183890B43838102E083898B4383819F
:10285000704721B1828842F00802828004E08288B9
:102860004FF6F7731A408280704701894FF6F8726D
:102870001140018170470A46002101894FF68F738C
:10288000194011430181704730B504460D46294671
:102890002046FFF7F0FF208940F00700208130BD7F
:1028A0002DE9F04104460D4616461F46602D06D11F
:1028B0003B46012231462046FFF775FE05E03B46C8
:1028C000012231462046FFF7A4FE29462046FFF7A5
:1028D000D2FF208940F007002081BDE8F08130B5AB
:1028E0000C4600210189C9B24FF6FF7505EA0325A0
:1028F000154325432943018130BD2DE9F0410546AB
:102900000E4617469846002443463A463146284626
:10291000FFF7E5FF2C894FF6F870044044F00704F8
:102920004FF68F70044044F070042C81BDE8F081B4
:10293000F0B504460D4616461F463B46324629462C
:102940002046FFF7CCFF208940F480402081F0BD75
:1029500082884FF68F731A40828082880A43828071
:10296000704702894FF6F8731A40028102890A43C0
:102970000281704702894FF67F731A4002810289F3
:102980000A4302817047F0B50C4615461E460021E9
:10299000002200230189028B038C4FF6F87739401F
:1029A00021434FF6FC473A4040F201173A434FF6B5
:1029B000DD773B404FF6FF7707EA06172F433B438F
:1029C000018102830384F0BD21B1828842F080023C
:1029D000828004E082884FF67F731A4082807047BD
:1029E000A0F850107047000010B50446FA48844221
:1029F00008D101211020FFF700F900211020FFF776
:102A0000FCF857E0F548844209D101214804FFF75A
:102A1000E3F800214FF40030FFF7DEF84AE0F04819
:102A2000844209D101218804FFF7D6F800214FF430
:102A30008020FFF7D1F83DE0EA48844209D1012126
:102A4000C804FFF7C9F800214FF40020FFF7C4F8CD
:102A500030E0E548844209D101210805FFF7BCF8C0
:102A600000214FF48010FFF7B7F823E0DF488442DD
:102A700008D101212020FFF7C0F800212020FFF716
:102A8000BCF817E0DA48844209D101218807FFF732
:102A9000A3F800214FF08040FFF79EF80AE0D548E8
:102AA000844207D101214005FFF796F80021600517
:102AB000FFF792F810BD2DE9FF4705460E460024AA
:102AC000A14600BFA046B08900B100BF2C8A24F403
:102AD0004054F08804432C82AC8941F20C6084435A
:102AE000B08831890843718908430443AC81AC8ABA
:102AF00024F44074B0890443AC826846FEF7FDFEBE
:102B0000B548854202D0B948854202D1DDF80C9023
:102B100001E0DDF80890A88900F4004040B109EB1D
:102B2000C90000EB091031684900B0FBF1F707E07C
:102B300009EBC90000EB091031688900B0FBF1F71F
:102B40006420B7FBF0F004012009642101FB107838
:102B5000A88900F4004040B1322000EBC800B0FB6F
:102B6000F1F000F00700044308E0322000EB081009
:102B70006421B0FBF1F000F00F0004432C81BDE8AC
:102B8000FF874FF41651016000218180C1800181CF
:102B90000C21418100218181704710B5024600203F
:102BA000108A20F470600B884C8823438C88234360
:102BB000CC8823431843108210BD0021018041803E
:102BC0008180C180704721B1828942F400528281A4
:102BD00004E082894DF6FF731A4082817047028BB0
:102BE00002F47F420283028B0A430283704721B1C1
:102BF000828942F40042828103E08289C2F30E029C
:102C00008281704721B1828A42F40062828204E0AC
:102C1000828A4FF2FF731A4082827047C1F3080222
:102C20008280704701468888C0F308007047028A96
:102C30004FF6F0731A400282028A0A4302827047FA
:102C400021B1828942F00202828104E082894FF63A
:102C5000FD731A408281704782894FF2FF731A40D8
:102C6000828182890A4382817047028A4FF6DF732C
:102C70001A400282028A0A430282704721B1028A04
:102C800042F48042028204E0028A4BF6FF731A404B
:102C900002827047818941F001018181704721B131
:102CA000828A42F00802828204E0828A4FF6F77339
:102CB0001A4082827047028BD2B20283028B42EAB0
:102CC00001220283704721B1828A42F0200282826F
:102CD00004E0828A4FF6DF731A408282704721B186
:102CE000828A42F01002828204E0828A4FF6EF73F9
:102CF0001A4082827047828A4FF6FB731A408282A2
:102D0000828A0A438282704721B1828A42F002029B
:102D1000828204E0828A4FF6FD731A4082827047F5
:102D20001AB1838A0B43838202E0838A8B438382B6
:102D30007047F0B50346002400260025002040F629
:102D40006A17B94200D100BF1846C1F3421401F01E
:102D50001F06012707FA06F5012C01D10C3004E00B
:102D6000022C01D1103000E014301AB107682F4353
:102D7000076002E00768AF430760F0BD024600202D
:102D8000B1F5007F00D100BF13880B400BB10120CB
:102D900000E00020704701F40072B2F5007F00D11E
:102DA00000BFCA430280704770B50246002400236A
:102DB0000025002040F66A16B14200D100BFC1F3E1
:102DC000421501F01F03012606FA03F3012D13D16A
:102DD0009689334017E00000001001400044004095
:102DE00000480040004C00400050004000140140EA
:102DF00000780040007C0040022D02D1168A33404A
:102E000001E0968A33400C12012606FA04F4168873
:102E1000344013B10CB1012000E0002070BD10B5AA
:102E20000022002340F66A14A14200D100BF0A121A
:102E300001249440A3B2DC43048010BD10B50446C5
:102E40006FF00400FDF7BEFBE11704EB5171C1F315
:102E5000C701394A11701046007800EB4001C1EB00
:102E6000C0104FF6FF7101EAC0003449088010BD60
:102E70000146314A12784A434FF0E0235A6100225A
:102E80009A611A46126942F001021A6100BF4FF0BE
:102E9000E022106900F001021AB100F48032002A29
:102EA000F5D04FF0E022126922F001024FF0E0234A
:102EB0001A6100229A6170470146204A12884A43EB
:102EC0004FF0E0235A6100229A611A46126942F0DB
:102ED00001021A6100BF4FF0E022106900F0010208
:102EE0001AB100F48032002AF5D04FF0E0221269C6
:102EF00022F001024FF0E0231A6100229A6170472C
:102F000070B504464FF4077094FBF0F0C6B24FF46E
:102F1000077094FBF0F100FB114085B205E04FF41F
:102F20000770FFF7C9FF701EC6B2002EF7D115B1AA
:102F30002846FFF7C1FF70BD2400002026000020B6
:102F400000BF704700BF4C4A128802F04002002ABE
:102F5000F9D0C2B2484B9A80704710B588B0044689
:102F600001210846FEF79AFD01211020FEF7F0FD31
:102F7000072209214148FEF77EFB07220A213F482C
:102F8000FEF779FB4FF4C060069002208DF81C001C
:102F90008DF81D0000208DF81E0001208DF81F0007
:102FA00006A93648FEF7DCFA02940020ADF80C00C2
:102FB000ADF80E00ADF81000ADF814000C20ADF81F
:102FC000120002A92C48FFF776FD01212A48FFF7DD
:102FD000FAFD012240F225512748FFF7AAFE2520DD
:102FE0008DF8040003208DF805008DF806000120FF
:102FF0008DF8070001A8FDF798FA08B010BD10B5CC
:1030000040F225511C48FFF7CFFE10B31A48FFF7D6
:1030100009FEC4B21A48008800F40040C8B9184834
:10302000008800F4804060B10A2C03D000201449CD
:10303000088020E01248008840F4004010490880D1
:1030400019E00D2C06D10E48008840F480400C4950
:10305000088010E00A480088C0F30D0009490C54AC
:1030600007480088401C0649088008460088C72891
:1030700001DD0020088010BD00100140000002406A
:103080002C000020B80200201CB501210220FEF710
:1030900005FD4FF40040009001208DF80400002051
:1030A0008DF8060003208DF8050069460848FEF7F4
:1030B00057FA4FF400410648FEF7D0FA4FF4FA7081
:1030C000FFF71EFF4FF400410148FEF7C5FA1CBD93
:1030D000000402401FB501210846FEF728FD4FF00D
:1030E0008040FEF72FFE0020ADF80C00ADF8060082
:1030F00040F2E73002905320ADF8040001A94FF0F0
:103100008040FEF7CCFE1C208DF8000000208DF8DA
:1031100001008DF8020001208DF803006846FDF7DC
:1031200004FA01218807FFF76FFB0122114690077F
:10313000FFF756FB1FBD10B501218807FEF738FFCA
:1031400010BD10B501218807FFF761FB012830D1C0
:1031500018480068401C1749086008460079401C60
:10316000087108464079401C487108468079401C27
:1031700088710846C079401CC8710846007A401C16
:1031800008720846407A401C48720846807A401C03
:1031900088720846C07A401CC8720846C068401C45
:1031A000C86008460069401C086101218807FFF7D4
:1031B0003FFB10BD8003002000B58BB00121084605
:1031C000FEF76CFC01214806FEF7B1FC09220B2139
:1031D000C448FEF750FA09220C21C248FEF74BFA08
:1031E0004FF4C050029002208DF80C0002A9BD4897
:1031F000FEF7B6F9BC48FDF735FC08A8FDF756FD0B
:1032000000208DF826008DF827008DF828008DF815
:1032100029008DF82A0001208DF82B0000208DF860
:1032200022008DF8230008208DF8240003208DF85B
:103230002500ADF8200008A9AB48FDF72CFC0020C4
:103240008DF81A008DF81B0001208DF81C0000205D
:10325000ADF81000ADF81200ADF81400ADF816008E
:10326000ADF8180001208DF81D0004A8FDF79DFCA5
:1032700014208DF8040001208DF8050000208DF841
:10328000060001208DF8070001A8FDF74EF9132074
:103290008DF8040001208DF805008DF806008DF8EA
:1032A000070001A8FDF741F9012202218E48FDF730
:1032B0007BFF012211468C48FDF776FF0BB000BD65
:1032C00010B501218848FDF7D7FF30B101218648AC
:1032D000FEF76DF801208549087010BD00B585B076
:1032E00002218148FDF7C8FF00287DD06A460021F1
:1032F0007D48FDF73EFE9DF8080000282CD19DF882
:1033000008000028FAD19DF80A000828F6D1009894
:103310001B2822D19DF80C009DF80B1040EA0120DB
:1033200000B2734908809DF80E109DF80D0041EA27
:10333000002000B26F4908809DF80F0001069DF83B
:10334000100041EA00419DF8110041EA00209DF87B
:103350001210084368490860BEE000982B2822D16B
:103360009DF80C009DF80B1040EA012000B2604966
:1033700048809DF80E109DF80D0041EA002000B233
:103380005C4948809DF80F0001069DF8100041EA55
:1033900000419DF8110041EA00209DF812100843F9
:1033A0005549486098E000983B2824D19DF80C00CE
:1033B0009DF80B1040EA012000B24D4988809DF82D
:1033C0000E109DF80D0041EA002000B249498880A6
:1033D0009DF80F0001069DF8100041EA00419DF89C
:1033E000110041EA002000E07AE09DF81210084345
:1033F0004149886070E000984B2822D19DF80C006C
:103400009DF80B1040EA012000B23949C8809DF8B0
:103410000E109DF80D0041EA002000B23549C88029
:103420009DF80F0001069DF8100041EA00419DF84B
:10343000110041EA00209DF8121008432E49C8608F
:103440004AE000981F2803D101202C49087043E06E
:1034500000982F2803D10120284948703CE00098AB
:103460003F2803D101202549887035E000984F2876
:1034700003D101202149C8702EE000981C2808D1F2
:103480009DF80B001E4908709DF80C001D4908703E
:1034900022E000982C2808D19DF80B0018494870AC
:1034A0009DF80C001749487016E000983C2808D198
:1034B0009DF80B00124988709DF80C001149887026
:1034C0000AE000984C2807D19DF80B000C49C87001
:1034D0009DF80C000B49C87002210348FDF767FFF7
:1034E00005B000BD00000240006400404000002024
:1034F0004800002050000020C40400205800002094
:103500005C0000206000002000B58BB0012102208B
:10351000FEF7C4FA01218806FEF709FB09220C21F7
:103520004D48FEF7A8F809220D214B48FEF7A3F8F5
:103530004FF44050029002208DF80C0002A946483A
:10354000FEF70EF840208DF8040001208DF80500EC
:1035500002208DF8060001208DF8070001A8FCF775
:10356000E4FF3F208DF8040001208DF805000320C2
:103570008DF8060001208DF8070001A8FCF7D5FFA3
:103580003648FDF76FFA08A8FDF790FB00208DF88C
:1035900026008DF827008DF828008DF829008DF879
:1035A0002A0001208DF82B0000208DF822008DF8D4
:1035B000230008208DF8240003208DF82500ADF8A5
:1035C000200008A92548FDF766FA0E208DF81A009C
:1035D00000208DF81B0001208DF81C000020ADF8A4
:1035E0001000ADF81200ADF81400ADF81600ADF8FB
:1035F000180001208DF81D0004A8FDF7D6FA01225D
:1036000002211648FDF7D0FD012211461348FDF7AF
:10361000CBFD0BB000BD10B501211048FDF72CFE0D
:1036200018B101210D48FDF7C2FE10BD00B585B0EF
:1036300002210A48FDF720FE58B16A4600210748DA
:10364000FDF797FC684600F03CFB02210348FDF7BC
:10365000AEFE05B000BD000000040240006800405E
:1036600010B588B0044601210420FEF717FA0121A5
:10367000C804FEF75CFA08220A214348FDF7FBFF65
:1036800008220B214048FDF7F6FF4FF440600690FA
:1036900002208DF81C008DF81D0000208DF81E0002
:1036A00001208DF81F0006A93748FDF759FF029445
:1036B0000020ADF80C00ADF80E00ADF81000ADF82C
:1036C00014000C20ADF8120002A93048FFF7F3F9FE
:1036D00001212E48FFF777FA34208DF804000320EB
:1036E0008DF805008DF8060001208DF8070001A86F
:1036F000FCF71BFF40212548FFF74DFB012240F25C
:1037000025512248FFF715FB08B010BD20490A7863
:103710000978491C1E4B19701E498854097855298F
:1037200003D000211A4611707047194909780B29F6
:1037300000DAF9E717494978532907D11649154A9C
:10374000921C13680B6052684A6000BF00BF0021E2
:103750000F4A117000BFE7E710B540F225510B4842
:10376000FFF722FB01280DD140F225510748FFF752
:1037700056FB0648FFF756FA0849087008460078D5
:10378000FFF7C4FF10BD000000080240004C0040DD
:1037900037000020940300202E0000203600002077
:1037A00080ED082AC0ED0A1A80ED000AC0ED010A7A
:1037B00080ED021ADFEDDA2AC0ED0B2AC0ED032AF4
:1037C000C0ED042AC0ED092AC0ED072AC0ED052A84
:1037D000C0ED062A012180F8301070479FEDD00A15
:1037E00080ED0B0A80ED030A80ED040A80ED090AE2
:1037F00080ED070A80ED050A80ED060A012180F8B8
:1038000030107047B4EEE00AF1EE10FA01DDB0EED0
:10381000600AB1EE601AB4EEC10AF1EE10FA03D2FA
:10382000B1EE601AB0EE410A704700B5F0EE401AF2
:10383000B0EE602A90F8301001290AD132EE610A08
:1038400080ED040A32EE610A80ED030A002180F85F
:10385000301032EE610A80ED050A90ED050AD0EDD8
:10386000040A30EE600A80ED060A90ED011AD0EDF0
:10387000052A21EE221AB0EE410A90ED081AF0EE68
:10388000410AFFF7BFFFD0ED000A90ED061A00EEE7
:10389000810AD0ED050A90ED031A70EE810A90EDD1
:1038A000041AF0EE002A42EEC10A90ED021A01EE6F
:1038B000200AD0ED090A30EE200A80ED090A90EDC9
:1038C000090AD0ED0A0AB4EEE00AF1EE10FA03DDBF
:1038D00090ED0A0A80ED090A90ED090AD0ED0A0A76
:1038E000F1EE600AB4EEE00AF1EE10FA05D290EDC6
:1038F0000A0AB1EE400A80ED090A90ED040A80ED53
:10390000030A90ED050A80ED040A00BD90F830101E
:10391000012906D180ED040A80ED030A002180F818
:10392000301080ED050AD0ED050A90ED041A70EE16
:10393000C10AC0ED060AD0ED000A90ED061A60EE4D
:10394000810A90ED011AD0ED051A41EE210A90EDA1
:10395000051AD0ED031A31EE211AD0ED041AB0EE9B
:10396000002A02EE611AD0ED021A41EE810A90EDB2
:10397000091A70EE810AC0ED090AD0ED090A90ED2E
:103980000A1AF4EEC10AF1EE10FA03DDD0ED0A0ACC
:10399000C0ED090AD0ED090A90ED0A1AB1EE411AFC
:1039A000F4EEC10AF1EE10FA05D2D0ED0A0AF1EEFA
:1039B000600AC0ED090AD0ED040AC0ED030AD0ED9B
:1039C000050AC0ED040A704700B5F0EE401AB0EEEB
:1039D000602A32EE610A80ED050A90ED070AD0ED0B
:1039E000050A30EE200A80ED070A90ED050AD0EDB9
:1039F000040A30EE600A80ED060A90ED011AD0ED5F
:103A0000072A21EE221AB0EE410A90ED081AF0EED4
:103A1000410AFFF7F7FED0ED000A90ED051A00EE1F
:103A2000810AD0ED020A90ED061A00EE810A80EDBF
:103A3000090A90ED090AD0ED0A0AB4EEE00AF1EEA7
:103A400010FA03DD90ED0A0A80ED090A90ED090AEB
:103A5000D0ED0A0AF1EE600AB4EEE00AF1EE10FAD7
:103A600005D290ED0A0AB1EE400A80ED090A90ED08
:103A7000050A80ED040A00BD00B5F0EE401AC0ED65
:103A8000051A90ED070AD0ED050A30EE200A80ED08
:103A9000070A90ED050AD0ED040A30EE600A80EDC9
:103AA000060A90ED011A90ED072A21EE021AB0EEF7
:103AB000410A90ED081AF0EE410AFFF7A3FED0ED9F
:103AC000000A90ED051A00EE810AD0ED020A90ED91
:103AD000061A00EE810A80ED090A90ED090AD0ED80
:103AE0000A0AB4EEE00AF1EE10FA03DD90ED0A0ADC
:103AF00080ED090A90ED090AD0ED0A0AF1EE600A9C
:103B0000B4EEE00AF1EE10FA05D290ED0A0AB1EE39
:103B1000400A80ED090A90ED050A80ED040A00BD17
:103B20000000000000B589B001210420FDF7FFFF6F
:103B300001210820FDF7B2FF4FF440500790032009
:103B40008DF8210002208DF8200001208DF8220040
:103B50008DF8230007A94F48FDF702FD02220C2132
:103B60004C48FDF788FD02220D214A48FDF783FDF0
:103B700004A8FEF7C8F90020ADF810004FF6FF705A
:103B800005900020ADF81800ADF8120004A94248D5
:103B9000FEF785F900231A4603213F48FEF7F3FE9E
:103BA00001A8FEF78AFD0020ADF80C0001A93A48F3
:103BB000FEF74CFD01213848FEF7FAF909B000BDC7
:103BC00000B589B001210220FDF7C2FF01210420C8
:103BD000FDF764FFC020079003208DF8210002202C
:103BE0008DF8200001208DF822008DF8230007A910
:103BF0002A48FDF7B5FC032206212848FDF73BFDC6
:103C0000032207212548FDF736FD04A8FEF77BF9BE
:103C10000020ADF810004FF6FF7005900020ADF8C1
:103C20001800ADF8120004A91D48FEF738F900236A
:103C30001A4603211A48FEF7A6FE01A8FEF73DFD2D
:103C40000020ADF80C0001A91548FEF7FFFC01218A
:103C50001348FEF7ADF909B000BD0146042902D0B2
:103C6000082912D108E00C4A2432126810B200224E
:103C7000094B24331A600AE0094A2432126810B250
:103C80000022074B24331A6001E0002000BF00BF70
:103C900070470000000C024000080040000802408D
:103CA0000004014010B59FED5B2ADFED5A1A9FED2D
:103CB0005A1AF7EE000AB2EE040A5848FFF770FDF0
:103CC00010BD0168A1F20121A1B9017BC27A41EACC
:103CD0000221534A1180827B417B42EA012109B2D1
:103CE0004F4A5180027CC17B42EA012109B24C4A11
:103CF000918000E000BF00BF704730B585B004463A
:103D00000D4600208DF808008DF8090008208DF878
:103D10000A00A5F20120082855D2DFE800F0040EC1
:103D200018222C36404A4FF400700090200A8DF87B
:103D30000B00E1B28DF80C1046E04FF400700090DB
:103D4000210A8DF80D10E1B28DF80E103CE04FF411
:103D500000700090210A8DF80F10E1B28DF810105C
:103D600032E04FF400700090210A8DF81110E1B29A
:103D70008DF8121028E040F2FF100090200A8DF814
:103D80000B00E1B28DF80C101EE040F2FF10009025
:103D9000210A8DF80D10E1B28DF80E1014E040F2FA
:103DA000FF100090210A8DF80F10E1B28DF810106D
:103DB0000AE040F2FF100090210A8DF81110E1B2E4
:103DC0008DF8121000E000BF00BF69461548FCF7EF
:103DD000DBFF05B030BD70B504460D461048B0F9A4
:103DE000020000EE900AF8EEE00AB0EE600A00EE83
:103DF000904AF8EEE00A0948FFF717FD074991EDF0
:103E0000090ABDEEC00A10EE101A08B22946FFF7E3
:103E100074FF70BD00606A4600000000900400203E
:103E2000380000200068004010B5002106E028227C
:103E300000BF1300A2F10102FBD1491C8142F6D35D
:103E400010BD70B586B004460D46002600208DF8E2
:103E50000C008DF80D0008208DF80E00072C06DCF4
:103E60000F2D04DC46EA042646EA051601E006B0FA
:103E700070BD019655208DF80F0055218DF810105A
:103E80008DF811108DF812108DF813108DF8141094
:103E90008DF815108DF816100020FE49087001A944
:103EA000FD48FCF771FF0020FC4908600CE0012090
:103EB000FFF7BAFFF9480068401CF8490860084657
:103EC0000068642800D903E0F24800780028EED0AA
:103ED00000BF00BFCBE7F0B585B004460D461746DE
:103EE000012600208DF808008DF8090008208DF8C3
:103EF0000A00072C06DC0F2D04DC46EA042646EAFD
:103F0000051601E005B0F0BD00968DF80B70552147
:103F10008DF80C108DF80D108DF80E108DF80F1017
:103F20008DF810108DF811108DF812100020D9495D
:103F300008706946D848FCF727FF0020D749086079
:103F40000CE00120FFF770FFD4480068401CD34903
:103F5000086008460068642800D903E0CD4800786E
:103F60000028EED000BF00BFCCE7F0B585B0054615
:103F70000E461446022700208DF808008DF809002F
:103F800008208DF80A00072D06DC0F2E04DC47EA16
:103F9000052747EA061701E005B0F0BD009741F29A
:103FA0008830844201DD044603E0BD48844200DAE3
:103FB0000446200A8DF80B00E1B28DF80C10552153
:103FC0008DF80D108DF80E108DF80F108DF8101063
:103FD0008DF811108DF812100020AE490870694656
:103FE000AD48FCF7D1FE0020AC4908600CE0012090
:103FF000FFF71AFFA9480068401CA8490860084656
:104000000068642800D903E0A24800780028EED0B8
:1040100000BF00BFC0E72DE9F04186B005460E465F
:1040200014461F464FF0030800208DF80C008DF851
:104030000D0008208DF80E00072D06DC0F2E04DC85
:1040400048EA052848EA061802E006B0BDE8F08113
:10405000CDF8048041F28830844201DD044603E05B
:104060008F48844200DA0446002C05DA201E01DB6A
:10407000014600E041420CB2200A8DF80F008DF895
:104080001040390A8DF811108DF8127055218DF8F5
:1040900013108DF814108DF815108DF816100020DF
:1040A0007C49087001A97C48FCF76EFE00207B4922
:1040B00008600CE00120FFF7B7FE78480068401C5C
:1040C0007649086008460068642800D903E0714812
:1040D00000780028EED000BF00BFB6E72DE9F04120
:1040E00086B005460E4614461F464FF004080020D1
:1040F0008DF80C008DF80D0008208DF80E00072DAE
:1041000006DC0F2E04DC48EA052848EA061802E01F
:1041100006B0BDE8F081CDF8048041F288308442D9
:1041200001DD044603E05E48844200DA0446002CC8
:1041300005DA201E01DB014600E041420CB2200AF4
:104140008DF80F008DF81040390A8DF811108DF898
:10415000127055218DF813108DF814108DF815106C
:104160008DF8161000204B49087001A94A48FCF749
:104170000BFE0020494908600CE00120FFF754FEC7
:1041800046480068401C45490860084600686428A5
:1041900000D903E03F4800780028EED000BF00BF00
:1041A000B6E72DE9F04186B006460F4614461D4697
:1041B0004FF0050800208DF80C008DF80D00082048
:1041C0008DF80E00072E06DC0F2F04DC48EA0628C7
:1041D00048EA071802E006B0BDE8F081CDF8048097
:1041E00041F28830844201DD044603E02C488442D9
:1041F00000DA0446002C05DA201E01DB014600E04F
:1042000041420CB2200A8DF80F008DF81040552164
:104210008DF811108DF81210290E8DF81310290C3D
:104220008DF81410290A8DF815108DF816500020FD
:104230001849087001A91848FCF7A6FD0020174985
:1042400008600CE00120FFF7EFFD14480068401CF7
:104250001249086008460068642800D903E00D4848
:1042600000780028EED000BF00BFB4E72DE9F0438E
:1042700085B00746884614461D460C9E4FF0060939
:1042800000208DF808008DF8090008208DF80A003C
:10429000072F07E040000020006400404400002099
:1042A00078ECFFFF07DCB8F10F0F04DC49EA0729BF
:1042B00049EA081902E005B0BDE8F083CDF80090A6
:1042C00041F28830844201DD044603E0FB48844229
:1042D00000DA0446002C05DA201E01DB014600E06E
:1042E00041420CB2002D05DA281E01DB014600E038
:1042F00041420DB2200A8DF80B00E1B28DF80C108E
:10430000290A8DF80D10E9B28DF80E10310E8DF8D6
:104310000F10310C8DF81010310A8DF81110F1B218
:104320008DF812100020E64908706946E548FCF750
:104330002BFD0020E44908600CE00120FFF774FD2C
:10434000E1480068401CE0490860084600686428AD
:1043500000D903E0DA4800780028EED000BF00BFA3
:10436000A9E72DE9F04186B005460E4614461F46E2
:104370004FF0070800208DF80C008DF80D00082084
:104380008DF80E00072D06DC0F2E04DC48EA052808
:1043900048EA061802E006B0BDE8F081CDF80480D6
:1043A000002C05DA201E01DB014600E041420CB280
:1043B000200A8DF80F008DF81040390A8DF8111081
:1043C0008DF8127055218DF813108DF814108DF89A
:1043D00015108DF816100020B949087001A9B948C8
:1043E000FCF7D2FC0020B84908600CE00120FFF780
:1043F0001BFDB5480068401CB349086008460068CA
:10440000642800D903E0AE4800780028EED000BF51
:1044100000BFC0E72DE9F04186B006460F461446BE
:104420001D464FF0080800208DF80C008DF80D0097
:1044300008208DF80E00072E06DC0F2F04DC48EA5A
:10444000062848EA071802E006B0BDE8F081CDF87A
:104450000480002C05DA201E01DB014600E0414209
:104460000CB2200A8DF80F008DF8104055218DF800
:1044700011108DF81210290E8DF81310290C8DF8DB
:104480001410290A8DF815108DF8165000208C494B
:10449000087001A98B48FCF777FC00208A49086066
:1044A0000CE00120FFF7C0FC87480068401C8649EB
:1044B000086008460068642800D903E08048007856
:1044C0000028EED000BF00BFBEE72DE9F04385B065
:1044D0000746884614461D460C9E4FF009090020E9
:1044E0008DF808008DF8090008208DF80A00072FC4
:1044F00007DCB8F10F0F04DC49EA072949EA08197B
:1045000002E005B0BDE8F083CDF80090002C05DA9C
:10451000201E01DB014600E041420CB2002D05DA0D
:10452000281E01DB014600E041420DB2200A8DF851
:104530000B00E1B28DF80C10290A8DF80D10E9B2CC
:104540008DF80E10310E8DF80F10310C8DF8101003
:10455000310A8DF81110F1B28DF81210002058496F
:10456000087069465748FCF70FFC00205649086060
:104570000CE00120FFF758FC53480068401C5249EA
:10458000086008460068642800D903E04C480078B9
:104590000028EED000BF00BFB3E72DE9F04186B0A0
:1045A00004460D46174698460A2600208DF80C0052
:1045B0008DF80D0008208DF80E00072C06DC0F2D5D
:1045C00004DC46EA042646EA051602E006B0BDE829
:1045D000F08101968DF80F708DF8108055218DF8BF
:1045E00011108DF812108DF813108DF814108DF82D
:1045F00015108DF8161000203149087001A93148B6
:10460000FCF7C2FB0020304908600CE00120FFF7F6
:104610000BFC2D480068401C2B49086008460068C8
:10462000642800D903E0264800780028EED000BFB7
:1046300000BFCBE770B586B004460D460F260020BC
:104640008DF80C008DF80D0008208DF80E00072C59
:1046500006DC0F2D04DC46EA042646EA051601E0D6
:1046600006B070BD019655208DF80F0055218DF8CC
:1046700010108DF811108DF812108DF813108DF8A0
:1046800014108DF815108DF8161000200C490870C4
:1046900001A90C48FCF778FB00200B49086015E0E5
:1046A0000120FFF7C1FB08480068401C064908606C
:1046B00008460068642809D90CE0000078ECFFFF88
:1046C00040000020006400404400002003480078BF
:1046D0000028E5D000BF00BFC2E700004000002076
:1046E00000B58DB001212020FDF7D8F90121880205
:1046F000FDF72EFA4FF400700B9003208DF8300078
:1047000000208DF833000BA95948FCF729FF01213F
:104710008802FDF772FA00214FF48060FDF76DFA10
:10472000002007904FF480300890002009900A90F4
:1047300007A8FBF79FFF002001908DF808000120DB
:104740008DF8090000200390059001208DF81800D5
:1047500001A94848FBF75FFF072301221946454896
:10476000FBF7DFFF12208DF8000000208DF801001C
:104770008DF8020001208DF803006846FBF7D5FE96
:10478000012240F205213B48FCF72CF90121394870
:10479000FBF787FF3748FCF720F83221364800F056
:1047A00079F80DB000BD10B540F205213148FCF795
:1047B00041F9012804D140F205212E48FCF74DF9BA
:1047C00010BD10B52DED028B82B0B7EE000AB0EE31
:1047D000408A294800F07AF802280CD101A926481D
:1047E00000F09EF82348FCF734F80446214622489E
:1047F00000F086F807E01F48FCF72BF80446214636
:104800001D4800F07DF869461B4800F0A7F81A48DB
:1048100000F06BF800EE100AB8EEC00AB0EE408A65
:10482000B5EEC08AF1EE10FA03D1B7EE000AB0EE91
:10483000408A9DED000AF8EE400A80EE880A9FED5E
:104840000F1AC0EE010A9FED0E0A20EE800ADFED7E
:104850000D0A60EE200A9FED0C0A9FED0C1A01EE86
:10486000200A0B4880ED000A02B0BDEC028B10BD9F
:104870000014024000220140D404002000008045C2
:1048800066664640545555400000484200C0784492
:104890006400002002463B48106000205060906099
:1048A000D160704710B50446204602F07CFD00241C
:1048B00010BD00214160816070470146D1E90102CD
:1048C000904201D1022070470320FCE7014688682E
:1048D000401CCA6890FBF2F302FB13004A68904246
:1048E00001D1022070470320FCE70146D1E90120F5
:1048F000801ACA68104490FBF2F302FB1300704761
:1049000010B502469368106840F823109068401C68
:10491000D36890FBF3F403FB14009060002010BDFB
:1049200010B50246D2E9000350F823000860506831
:10493000401CD36890FBF3F403FB1400506000208C
:1049400010BD10B5416805E04A1CC36892FBF3F442
:1049500003FB142182688A42F6D110BD70B50A4665
:104960000023416809E0046854F8214023444C1CAA
:10497000C56894FBF5F605FB164184688C42F2D1BC
:10498000136070BDE404002010B50024FFF7CAF8DE
:10499000FFF716F94FF4E130FEF762FE04E0601C09
:1049A000C4B20520FEF7ACFA642CF8DB9FEDFE0ADA
:1049B000FE4880ED000A9FEDFE0A80ED010A9FEDA2
:1049C000FD0A80ED020A90ED000AFB4880ED000A26
:1049D000F64890ED010AF84880ED010AF748B0F971
:1049E000040000EE100AB8EEC00AB1EE400ADFED96
:1049F000F40A80EE201A9FEDF30A21EE000AEB483C
:104A000080ED030A10BD10B52DED108B82B09FED27
:104A1000E90AF0EE408A9FEDE70AB0EE408AE748E7
:104A2000B0F9040000EE100AB8EEC00A9FEDE41AD7
:104A3000C0EE010ADD4890ED030A9FEDE21A10EE88
:104A4000810AD0ED020A30EE200ADB4880ED020A2E
:104A500090ED020ADFEDDB0AB4EEE00AF1EE10FAA7
:104A60000CDD90ED020ADFEDD70A30EE600ADFEDD3
:104A7000D60A30EE200A80ED020A15E0CE4890ED0D
:104A8000020ADFEDD10AB4EEE00AF1EE10FA0BD81B
:104A900090ED020ADFEDCB0A30EE200ADFEDC90A05
:104AA00030EE200A80ED020AC34890ED020ADFEDE5
:104AB000C70A30EE200AB0EE408A9FEDC20AB4EE7B
:104AC000C08AF1EE10FA0ADD9FEDBE0A38EE400A08
:104AD000DFEDBD0A30EE200AB0EE408A10E09FED17
:104AE000BA0AB4EEC08AF1EE10FA09D89FEDB50A01
:104AF00038EE000ADFEDB30A30EE200AB0EE408A4D
:104B0000AD4890ED020AB248D0ED000A20EE200A2E
:104B1000B5EEC00AF1EE10FA12DBA74890ED020ADA
:104B2000AB48D0ED000A30EE600ADFEDA60A80EE59
:104B3000201A9FEDA80A21EE000AF0EE408A70E0EC
:104B4000A34890ED000A00F06DFCB0EE409A9A4840
:104B5000D0ED020AB0EE600A00F064FC39EE000A03
:104B6000DFED980AB4EEE00AF1EE10FA12D892489E
:104B700090ED020A9648D0ED000A30EE600A9FEDF3
:104B8000911AC0EE010A9FED930A20EE800AF0EE22
:104B9000408A46E0884890ED020A8D48D0ED000A30
:104BA00030EE600AB5EEC00AF1EE10FA16DD82486A
:104BB00090ED020A8648D0ED000A30EE600ADFED83
:104BC000860A30EE600A9FED7F1AC0EE010A9FED63
:104BD000810A20EE800AF0EE408A22E0764890EDCD
:104BE000020A7B48D0ED000A30EE600AB5EEC00A3A
:104BF000F1EE10FA15D2704890ED020A7448D0ED2B
:104C0000000A30EE600ADFED740A30EE200ADFEDB4
:104C10006D0A80EE201A9FED6F0A21EE000AF0EE79
:104C2000408A654890ED020A694880ED000ADFED90
:104C3000650A88EE200ADFED670A20EE200A10EEF2
:104C4000104A204605F01EF841EC1E0BB0EE4E0A4D
:104C5000F0EE6E0A03F0ACFDB0EE40CAF0EE60CAB2
:104C60005E4890ED030ADFED5E0A00EEA80A10EE42
:104C7000101A084605F006F841EC1D0B53EC1C2BEE
:104C800004F040FD41EC1B0BDFED4E0A88EE200ADC
:104C9000DFED500A20EE200A10EE104A204604F004
:104CA000F1FF41EC1E0BB0EE4E0AF0EE6E0A03F07F
:104CB0001BFDB0EE40CAF0EE60CA484890ED020A13
:104CC000DFED470A00EEE80A10EE101A084604F07D
:104CD000D9FF41EC1D0B53EC1C2B04F013FD53ECDE
:104CE0001B2BCDE900019DED000B51EC100B04F0E6
:104CF000DFFE41EC190B304890ED000A10EE101A5F
:104D0000084604F0BFFF41EC1A0B53EC192B04F0DA
:104D10009FFA41EC1F0B04F069FA27490860DFEDA8
:104D2000290A88EE200ADFED2B0A20EE200A10EE79
:104D3000104A204604F0A6FF41EC1E0BB0EE4E0ACE
:104D4000F0EE6E0A03F0D0FCB0EE40CAF0EE60CA9E
:104D5000224890ED030ADFED220A00EEA80A10EEC9
:104D6000101A084604F08EFF41EC1D0B53EC1C2B6F
:104D700004F0C8FC41EC1A0BDFED120A88EE200AA1
:104D8000DFED140A20EE200A10EE104A204604F04F
:104D900079FF41EC1E0BB0EE4E0AF0EE6E0A03F006
:104DA00007FDB0EE40CA1DE00000FAC3E40B00208E
:104DB0000000FA4300000000840600202E000020BE
:104DC0000000004700003443000034C300003442B8
:104DD0006C000020DB0F49400000B4437406002043
:104DE00058A85841F0EE60CA2D4890ED020A5FEDD8
:104DF000040A00EEE80A10EE101A084604F042FF1A
:104E000041EC1D0B53EC1C2B04F07CFC41EC1B0B08
:104E100053EC1A2B04F01CFA41EC190B214890EDCD
:104E2000010A10EE101A084604F02CFF41EC1F0B8B
:104E300053EC192B04F00CFACDE900019DED000BA9
:104E400051EC100B04F0D2F91649486002B0BDECE9
:104E5000108B10BD10B50420FEF7FFFE4042104934
:104E600008600820FEF7F9FE40420D4948600846F8
:104E700090ED000AB8EEC00ADFED0B0A20EE200A22
:104E800080ED020A90ED010AB8EEC00ADFED060AD5
:104E900020EE200A80ED030AFFF7B5FD10BD0000EB
:104EA0007406002084060020536C233D10B5642056
:104EB000FEF726F800210846FEF7C3FF4FF4FA700C
:104EC000FEF71EF80023012219461846FFF765FB7E
:104ED0003220FEF715F8032200210846FEF7FBFFFB
:104EE0004FF4FA70FEF70CF810BD00B52DED108BE5
:104EF00087B0F0EE408AB0EE609AF0EE419AB0EEE4
:104F0000618A9FEDFE0A28EE000ADFEDFD0A80EEC1
:104F1000201AB0EE418A19EE900A04F0B3FECDE9F2
:104F2000040119EE100A04F0ADFE41EC1B0B9FEDDD
:104F3000F50A38EE000A10EE101A084604F0A2FE38
:104F400041EC1D0BB0EE4D0AF0EE6D0A03F030FCA3
:104F5000B0EE40CAF0EE60CA53EC1B2B51EC1C0BB8
:104F600004F0D0FB41EC1F0B18EE900A04F08AFE0F
:104F700041EC1B0B9FEDE30A38EE000A10EE101A0D
:104F8000084604F07FFE41EC1D0BB0EE4D0AF0EE3A
:104F90006D0A03F0A9FBB0EE40CAF0EE60CA53EC14
:104FA0001B2B51EC1C0B04F0ADFB41EC1A0B53EC2A
:104FB0001F2B04F04DF9CDE902019DED040B53ECDC
:104FC000102B9DED020B51EC100B04F071FD41EC28
:104FD0001E0B04F03DFB00B2CB49088019EE900A8D
:104FE00004F050FE41EC1A0B19EE100A04F04AFED0
:104FF00041EC1B0B9FEDC30A38EE400A10EE101A6D
:10500000084604F03FFE41EC1D0BB0EE4D0AF0EEF9
:105010006D0A03F0CDFBB0EE40CAF0EE60CA53EC6F
:105020001B2B51EC1C0B04F06DFB41EC1F0B18EE1D
:10503000900A04F027FE41EC1B0B9FEDB20A38EEFC
:10504000400A10EE101A084604F01CFE41EC1D0B3D
:10505000B0EE4D0AF0EE6D0A03F046FBB0EE40CA2A
:10506000F0EE60CA53EC1B2B51EC1C0B04F04AFB16
:1050700053EC1F2BCDE902019DED020B51EC100BFF
:1050800004F0E6F841EC1E0B53EC1A2B04F0E0F8A8
:10509000CDE904019DED040B51EC100B04F0D8FA9E
:1050A00000B29949488019EE900A04F0EBFDCDE971
:1050B000040119EE100A04F0E5FD41EC1B0B9FED15
:1050C000910A38EE000A10EE101A084604F0DAFDD4
:1050D00041EC1D0BB0EE4D0AF0EE6D0A03F068FBDB
:1050E000B0EE40CAF0EE60CA53EC1B2B51EC1C0B27
:1050F00004F008FB41EC1A0B18EE900A04F0C2FD14
:1051000041EC1B0B9FED7F0A38EE000A10EE101ADF
:10511000084604F0B7FD41EC1E0BB0EE4E0AF0EE6F
:105120006E0A03F0E1FAB0EE40DAF0EE60DA51EC2C
:105130001D0B04F04FF841EC1C0B53EC1B2B04F03F
:10514000E1FA53EC1A2BCDE900019DED000B51EC77
:10515000100B04F0ADFCCDE902019DED040B53EC06
:10516000102B9DED020B51EC100B04F0A1FC41EC57
:105170001F0B04F06DFA00B26349888019EE900AA3
:1051800004F080FD41EC1F0B19EE100A04F07AFDCB
:1051900041EC1A0B9FED5B0A38EE400A10EE101A34
:1051A000084604F06FFD41EC1C0BB0EE4C0AF0EE2B
:1051B0006C0A03F0FDFAB0EE40BAF0EE60BA53ECC0
:1051C0001A2B51EC1B0B04F09DFACDE9000118EEEF
:1051D000900A04F057FD41EC1A0B9FED4A0A38EE95
:1051E000400A10EE101A084604F04CFD41EC1D0B6D
:1051F000B0EE4D0AF0EE6D0A03F076FAB0EE40CA5A
:10520000F0EE60CA51EC1C0B03F0E4FF41EC1B0B09
:1052100053EC1A2B04F076FA41EC1E0B9DED000BBB
:1052200053EC102B04F044FC53EC1F2BCDE902018E
:105230009DED020B51EC100B04F00AF8CDE90401CE
:105240009DED040B51EC100B04F002FA00B22E4954
:10525000C88007B0BDEC108B00BD10B52B4890ED99
:10526000022AF0EE421A2A48B0F9100002EE100AA3
:10527000B8EEC22AB0EE421A2548B0F90E0002EE8E
:10528000100AB8EEC22AF0EE420A2148B0F90C002A
:1052900002EE100AB8EEC22AB0EE420AFFF725FE6F
:1052A00019480088404200B21749088008464088E3
:1052B000404200B248800846808888800846C088FE
:1052C000404200B2C8800846B0F9003041F288324E
:1052D00001210020FEF702FF0B48B0F9023041F235
:1052E000883202210020FEF7F9FE0748B0F90430A9
:1052F00041F28832032100200CE00000DB0F49401E
:1053000000003443DB0F493F70000020CC0B00202D
:1053100090060020FEF7E2FE0448B0F9063041F2A4
:10532000883204210020FEF7D9FE10BD7000002055
:1053300010B501F071FF10BD70477047704770479E
:105340007047704710B5FFF73CFA10BD704710B5B5
:1053500001F0E4FD01F0E7FFFFF77FFF01F034FF0C
:1053600010BD5BE02E480079012804DBFFF7EFFF5A
:1053700000202B4908712A484079022804DBFFF7F6
:10538000E5FF00202649487125488079052804DB7F
:10539000FFF7D8FF0020224988712148C0790A28E8
:1053A00004DBFFF7CEFF00201D49C8711C48007ABE
:1053B000142804DBFFF7C4FF0020194908721848BD
:1053C000407A322804DBFFF7BAFF00201449487204
:1053D0001348807A642804DBFFF7B0FF00201049EF
:1053E00088720F48C07AC82804DBFFF7A6FF0020A8
:1053F0000B49C8720A48C068B0F5FA7F04D3FFF7BA
:105400009BFF00200649C86005480069B0F57A7F17
:1054100004D3FFF78DFF002001490861A2E70000D7
:1054200080030020B5EEC00AF1EE10FA03D2F1EECF
:10543000400AB0EE600A704710B52DED028BFE48B1
:1054400090ED020AFD48D0ED020A20EE200AB5EEEA
:10545000C00AF1EE10FA07DB90ED020AF648D0ED33
:10546000020A30EE608A54E0F348D0ED020AB0EE52
:10547000600AFFF7D7FFB0EE401AF048D0ED020AFD
:10548000B0EE600AFFF7CEFF31EE000ADFEDEC0A66
:10549000B4EEE00AF1EE10FA08D8E84890ED020AFE
:1054A000E548D0ED020A30EE608A32E0E34890ED44
:1054B000020AE148D0ED020A30EE600AB5EEC00AF9
:1054C000F1EE10FA0CDDDD4890ED020ADA48D0ED7D
:1054D000020A30EE600ADFEDDB0A30EE608A18E087
:1054E000D64890ED020AD448D0ED020A30EE600AA8
:1054F000B5EEC00AF1EE10FA0BD2D04890ED020AD8
:10550000CD48D0ED020A30EE600ADFEDCE0A30EE73
:10551000208A9FEDCB0AC8EE000A9FEDCB0A20EE51
:10552000800AB0EE408AB0EE480AC848FEF7EEF9AD
:10553000C648D0ED098A9FEDC60A28EE800ADFED45
:10554000C50A20EE200ABDEEC00A10EE100A00B215
:10555000C1490882BDEC028B10BD10B52DED048B46
:10556000B64890ED000AD0ED010AB4EEE00AF1EE83
:1055700010FA05DB0020B8490882BDEC048B10BD91
:10558000B64890ED000AF8EE408AAC4890ED000A6B
:10559000B4EEE80AF1EE10FA06DB0020AE4908820C
:1055A0000120AF4908709FE0A44890ED010AB4EED5
:1055B000E80AF1EE10FA7DDBA9480078012879D1DC
:1055C0009D4890ED020A9D48D0ED020A20EE200A87
:1055D000B5EEC00AF1EE10FA07DB90ED020A96482C
:1055E000D0ED020A30EE608A54E09348D0ED020A12
:1055F000B0EE600AFFF716FFB0EE401A8F48D0ED0C
:10560000020AB0EE600AFFF70DFF31EE000ADFED8F
:105610008C0AB4EEE00AF1EE10FA08D8874890ED53
:10562000020A8548D0ED020A30EE608A32E08348F3
:1056300090ED020A8048D0ED020A30EE600AB5EE25
:10564000C00AF1EE10FA0CDD7C4890ED020A7A48AF
:10565000D0ED020A30EE600ADFED7A0A30EE608AA1
:1056600018E0764890ED020A7348D0ED020A30EE59
:10567000600AB5EEC00AF1EE10FA0BD26F4890ED59
:10568000020A6D48D0ED020A30EE600ADFED6D0AC5
:1056900030EE208A9FED6A0AC8EE000A9FED6A0A82
:1056A00020EE800AB0EE408A644890ED010AD0ED09
:1056B000000A00E016E030EE600A88EE009A9FEDE6
:1056C000640A29EE000ADFED630A20EE200ABDEE2F
:1056D000C00A10EE100A00B25F490882002060493B
:1056E000087001E0FFF7A8FE5C480068401C5B49B9
:1056F000086000BF41E710B52DED048B594890EDCF
:10570000000A4D48D0ED000A30EE600AB0EE408A43
:10571000544890ED010A4848D0ED010A30EE600A85
:10572000F0EE408A4F48D0ED020AB7EE001A60EE64
:10573000810AB0EE600AFFF775FE4B4880ED0A0A59
:10574000B0EE480AFEF7E2F8474890ED090AB0EEDD
:10575000409A4448D0ED020AB7EE001A60EE810A82
:10576000B0EE600AFFF75EFE404880ED0A0AB0EE38
:10577000680AFEF7CBF83D4890ED090AF0EE409A32
:105780009FED330A29EE000ABDEEC00A10EE100AA2
:1057900000B2314988819FED2E0A29EE800ABDEEC4
:1057A000C00A10EE100A00B2C881BDEC048B10BD17
:1057B00010B52DED088BF0EE408A9FED2D0AB0EE6E
:1057C000409A2C4890ED000A30EE680AB0EE408A0C
:1057D000294890ED060AD0ED040AB4EEE00AF1EE95
:1057E00010FA7DDB90ED060AD0ED080AB4EEE00A6F
:1057F000F1EE10FA74DB90ED050AB5EEC00AF1EE99
:1058000010FA6DDB90ED070AB5EEC00AF1EE10FA62
:1058100066D890ED040AB5EEC00AF1EE10FA5FDB2F
:1058200090ED060AB5EEC00AF1EE10FA58DB90EDE5
:10583000080AB5EEC00A21E0280A0020BC0A0020B0
:10584000000034430000B443DB0F4940980B0020B4
:1058500017F528400000AF4390060020AC0200205E
:10586000B5020020980A0020300B0020640B0020B5
:1058700000000000A40A0020680A0020F1EE10FADF
:105880002EDBFE4890ED010AD0ED020A30EE200A30
:10589000D0ED000AB4EEE00AF1EE10FA69D8B5EEE8
:1058A000C08AF1EE10FA64DB90ED010AB4EEC80A8A
:1058B000F1EE10FA26DDF24890ED040A20EE000A1F
:1058C000D0ED050AB0EE001A60EE810A00EE880AFB
:1058D00010EE101A084604F0D5F941EC1B0B00E05D
:1058E00051E0B0EE4B0AF0EE6B0A02F0C5FFB0EEED
:1058F00040AAF0EE60AA51EC1A0B03F077FC09EE17
:10590000100A49E0DD4890ED010AD0ED030A30EEBF
:10591000200AB4EEC80AF1EE10FA05DDD84890ED81
:10592000060AB0EE409A37E0D54890ED080A20EE1E
:10593000000AD0ED070AB0EE001A60EE810A00EE10
:10594000E80A10EE101A084604F09CF941EC1B0B13
:10595000B0EE4B0AF0EE6B0A02F08EFFB0EE40AAFA
:10596000F0EE60AA51EC1A0B03F040FC09EE100AAD
:1059700012E0C348D0ED040AB0EE600AFFF752FD12
:10598000B0EE409A08E0BE48D0ED040AB0EE600ADE
:10599000FFF748FDB0EE409AB0EE490ABDEC088B27
:1059A00010BD10B52DED028BB0EE408A1FED500AF0
:1059B000F0EE408AB3480068C0EB0010B2490968B5
:1059C00001EB8000407810B1012811D109E0AC480A
:1059D000D0ED040AB0EE600AFFF724FDF0EE408A35
:1059E00007E0B0EE480AFFF7E3FEF0EE408A00E081
:1059F00000BF00BFB0EE680ABDEC028B10BD10B551
:105A00002DED108B86B09E4890ED020AD0ED000A75
:105A1000B4EE600AF1EE10FA7ED090ED030AD0EDFC
:105A2000010A30EE600AD0ED020A90ED001A70EE25
:105A3000C10A80EE208A90ED010AD0ED000AB0EE96
:105A400040FA08EE60FAB5EEC08AF1EE10FA7CD0AA
:105A5000BFEE000AC0EE08BAB7EE000A0BEEAB0AC2
:105A6000F7EE000A80EE801A11EE104A204604F08C
:105A700009F9CDE904019DED040B02F0FDFEB0EE45
:105A800040CAF0EE60CA51EC1C0B03F0AFFB0AEE0B
:105A9000100A2BEE8ADAF5EEC0BAF1EE10FA7DDDCF
:105AA0007A48D0ED010A90ED001AB0EE4F0A08EEE8
:105AB000010AF4EEC00AF1EE10FA56DBB7EE000A66
:105AC00008EE080A10EE101A084604F0DBF8CDE9DB
:105AD00000019DED000B02F0CFFEB0EE40CAF0EEEB
